{
  "transactions": [
    {
      "hash": "0x3927417115069cecbef2d0006883914dc471453b708e044fbe4bbcd05824ef94",
      "transactionType": "CALL",
      "contractName": null,
      "contractAddress": "0xd0d10ee4d177d402dc1d48c99633b8a055297f73",
      "function": "approve(address,uint256)",
      "arguments": [
        "0xfDE4F040b09fe47f7E5FA4E8948167907B0243Cf",
        "100000000000000000000"
      ],
      "transaction": {
        "from": "0xfec0c677955472e5ecdd3fb6f3deed33d7fb1fb4",
        "to": "0xd0d10ee4d177d402dc1d48c99633b8a055297f73",
        "gas": "0xf080",
        "value": "0x0",
        "input": "0x095ea7b3000000000000000000000000fde4f040b09fe47f7e5fa4e8948167907b0243cf0000000000000000000000000000000000000000000000056bc75e2d63100000",
        "nonce": "0x200",
        "chainId": "0xaa36a7"
      },
      "additionalContracts": [],
      "isFixedGasLimit": false
    },
    {
      "hash": "0xada54996527e1488a4f8b85bd0b4ffedfc222dcba8f86e9c7079abf321ef9411",
      "transactionType": "CALL",
      "contractName": null,
      "contractAddress": "0xfde4f040b09fe47f7e5fa4e8948167907b0243cf",
      "function": "deposit(bytes32,uint256)",
      "arguments": [
        "0x5d7a820635cf98982b8bd78f7fbbc7d1d4204dc422ac5ca8414dbf1df2667985",
        "100000000000000000000"
      ],
      "transaction": {
        "from": "0xfec0c677955472e5ecdd3fb6f3deed33d7fb1fb4",
        "to": "0xfde4f040b09fe47f7e5fa4e8948167907b0243cf",
        "gas": "0x14dd4",
        "value": "0x0",
        "input": "0x1de26e165d7a820635cf98982b8bd78f7fbbc7d1d4204dc422ac5ca8414dbf1df26679850000000000000000000000000000000000000000000000056bc75e2d63100000",
        "nonce": "0x201",
        "chainId": "0xaa36a7"
      },
      "additionalContracts": [],
      "isFixedGasLimit": false
    },
    {
      "hash": "0xda77e8e724e59cb33a32d7399f4bc259b3c70173ac81e3f169c51c15aa3c1e22",
      "transactionType": "CALL",
      "contractName": null,
      "contractAddress": "0xfde4f040b09fe47f7e5fa4e8948167907b0243cf",
      "function": "withdraw(bytes32,address,uint256)",
      "arguments": [
        "0x11568112646ae61522dca1fc4cc9784c1e324c9ebd785ebd8756820b04b5a095",
        "0x932999C473DEcAFd13722cEB4141239E2753E379",
        "100000000000000000000"
      ],
      "transaction": {
        "from": "0xfec0c677955472e5ecdd3fb6f3deed33d7fb1fb4",
        "to": "0xfde4f040b09fe47f7e5fa4e8948167907b0243cf",
        "gas": "0x1736f",
        "value": "0x0",
        "input": "0xa6fb97d111568112646ae61522dca1fc4cc9784c1e324c9ebd785ebd8756820b04b5a095000000000000000000000000932999c473decafd13722ceb4141239e2753e3790000000000000000000000000000000000000000000000056bc75e2d63100000",
        "nonce": "0x202",
        "chainId": "0xaa36a7"
      },
      "additionalContracts": [],
      "isFixedGasLimit": false
    }
  ],
  "receipts": [
    {
      "status": "0x1",
      "cumulativeGasUsed": "0x16ab158",
      "logs": [],
      "logsBloom": "0x00000000000000000000000000000000000000000000000000000000000000000000000000000000000000000000000000000000000000000000000000000000000000000000000000000000000000000000000000000000000000000000000000000000000000000000000000000000000000000000000000000000000000000000000000000000000000000000000000000000000000000000000000000000000000000000000000000000000000000000000000000000000000000000000000000000000000000000000000000000000000000000000000000000000000000000000000000000000000000000000000000000000000000000000000000000",
      "type": "0x2",
      "transactionHash": "0x3927417115069cecbef2d0006883914dc471453b708e044fbe4bbcd05824ef94",
      "transactionIndex": "0x94",
      "blockHash": "0x7607a150e28655b73af8e4dc529df1c631c666a3bc9e90ece2d01ceeafd1a61f",
      "blockNumber": "0x8397c8",
      "gasUsed": "0xae1f",
      "effectiveGasPrice": "0x65a853",
      "from": "0xfec0c677955472e5ecdd3fb6f3deed33d7fb1fb4",
      "to": "0xd0d10ee4d177d402dc1d48c99633b8a055297f73",
      "contractAddress": null
    },
    {
      "status": "0x1",
      "cumulativeGasUsed": "0x16ba308",
      "logs": [
        {
          "address": "0xfde4f040b09fe47f7e5fa4e8948167907b0243cf",
          "topics": [
            "0x743d3067919fbf32a17803b5c0a9dd39d48691e1376031b691cc173f593b0933",
            "0x5d7a820635cf98982b8bd78f7fbbc7d1d4204dc422ac5ca8414dbf1df2667985"
          ],
          "data": "0x",
          "blockHash": "0x7607a150e28655b73af8e4dc529df1c631c666a3bc9e90ece2d01ceeafd1a61f",
          "blockNumber": "0x8397c8",
          "blockTimestamp": "0x685b9618",
          "transactionHash": "0xada54996527e1488a4f8b85bd0b4ffedfc222dcba8f86e9c7079abf321ef9411",
          "transactionIndex": "0x95",
          "logIndex": "0xf7",
          "removed": false
        }
      ],
      "logsBloom": "0x00000000000000000000000000000001002000000000000000000000000000000000000080000000000000000000000200000000000000000000000000800000001000000000000000000000000000000000000000000000000000000000000000000000000000000000000000000000000000000000000000000000000000000000100000000000000000000000000000000000000000000000000000000000000000000000000000000000000000000400000000000000000000000000000000000000000000000000000000000000000000000000000000000000000000000000000000000000000000000000001000000000000000000000000000000000",
      "type": "0x2",
      "transactionHash": "0xada54996527e1488a4f8b85bd0b4ffedfc222dcba8f86e9c7079abf321ef9411",
      "transactionIndex": "0x95",
      "blockHash": "0x7607a150e28655b73af8e4dc529df1c631c666a3bc9e90ece2d01ceeafd1a61f",
      "blockNumber": "0x8397c8",
      "gasUsed": "0xf1b0",
      "effectiveGasPrice": "0x65a853",
      "from": "0xfec0c677955472e5ecdd3fb6f3deed33d7fb1fb4",
      "to": "0xfde4f040b09fe47f7e5fa4e8948167907b0243cf",
      "contractAddress": null
    },
    {
      "status": "0x1",
      "cumulativeGasUsed": "0x16ca101",
      "logs": [
        {
          "address": "0xfde4f040b09fe47f7e5fa4e8948167907b0243cf",
          "topics": [
            "0xb18c630f7b4f080f2ce1a87d68860e67aef56b0978e448ed92312da4eebeb160",
            "0x8c7fcf0d2fec29927126599e0df7658b3814fba9d73b6d7734352ef4ad4d04c3"
          ],
          "data": "0x000000000000000000000000932999c473decafd13722ceb4141239e2753e379",
          "blockHash": "0x7607a150e28655b73af8e4dc529df1c631c666a3bc9e90ece2d01ceeafd1a61f",
          "blockNumber": "0x8397c8",
          "blockTimestamp": "0x685b9618",
          "transactionHash": "0xda77e8e724e59cb33a32d7399f4bc259b3c70173ac81e3f169c51c15aa3c1e22",
          "transactionIndex": "0x96",
          "logIndex": "0xf8",
          "removed": false
        }
      ],
      "logsBloom": "0x00000000000020000000000000000000002000000000000001000000000040000000000080000000000000000000000200000000000000000000000000000000000000000000000000000000000000000000000000000000000000000000000000000002000000000000080000000000000000000000000000000000000000000000000000000000000000000000000000000000000000000000000000000000000000000000000000000000000000000000000000000000000000000000000000000000000000000000000000000000000000000000000000000000000000000000000000000000000000000000001000000000000000000000000000000000",
      "type": "0x2",
      "transactionHash": "0xda77e8e724e59cb33a32d7399f4bc259b3c70173ac81e3f169c51c15aa3c1e22",
      "transactionIndex": "0x96",
      "blockHash": "0x7607a150e28655b73af8e4dc529df1c631c666a3bc9e90ece2d01ceeafd1a61f",
      "blockNumber": "0x8397c8",
      "gasUsed": "0xfdf9",
      "effectiveGasPrice": "0x65a853",
      "from": "0xfec0c677955472e5ecdd3fb6f3deed33d7fb1fb4",
      "to": "0xfde4f040b09fe47f7e5fa4e8948167907b0243cf",
      "contractAddress": null
    }
  ],
  "libraries": [],
  "pending": [],
  "returns": {},
  "timestamp": 1750832665,
  "chain": 11155111,
  "commit": "5eeddb6"
}