{
  "transactions": [
    {
      "hash": "0x05779582b56076fb636889de53e8782c9f305f9c47de2f252ea28809997ea658",
      "transactionType": "CALL",
      "contractName": null,
      "contractAddress": "0x3a9dab65fa437e31ce47fcc80eb9a0d9a170b931",
      "function": "approve(address,uint256)",
      "arguments": [
        "0x80321265E087D94e43619A62b8E78A9e4af8C083",
        "100000000000000000000"
      ],
      "transaction": {
        "from": "0xfec0c677955472e5ecdd3fb6f3deed33d7fb1fb4",
        "to": "0x3a9dab65fa437e31ce47fcc80eb9a0d9a170b931",
        "gas": "0xf080",
        "value": "0x0",
        "input": "0x095ea7b300000000000000000000000080321265e087d94e43619a62b8e78a9e4af8c0830000000000000000000000000000000000000000000000056bc75e2d63100000",
        "nonce": "0x207",
        "chainId": "0xaa36a7"
      },
      "additionalContracts": [],
      "isFixedGasLimit": false
    },
    {
      "hash": "0x2db1fe05b4920f482450713d36d2d738ad8a8a733ae0b31a7aa7564b142e2671",
      "transactionType": "CALL",
      "contractName": null,
      "contractAddress": "0x80321265e087d94e43619a62b8e78a9e4af8c083",
      "function": "deposit(bytes32,uint256)",
      "arguments": [
        "0x702d431605daa061cc1a3cd382cfc7eb2a92873d0312ca9e46ed440cc044570b",
        "100000000000000000000"
      ],
      "transaction": {
        "from": "0xfec0c677955472e5ecdd3fb6f3deed33d7fb1fb4",
        "to": "0x80321265e087d94e43619a62b8e78a9e4af8c083",
        "gas": "0x221f0",
        "value": "0x0",
        "input": "0x1de26e16702d431605daa061cc1a3cd382cfc7eb2a92873d0312ca9e46ed440cc044570b0000000000000000000000000000000000000000000000056bc75e2d63100000",
        "nonce": "0x208",
        "chainId": "0xaa36a7"
      },
      "additionalContracts": [],
      "isFixedGasLimit": false
    }
  ],
  "receipts": [
    {
      "status": "0x1",
      "cumulativeGasUsed": "0x12d7c22",
      "logs": [],
      "logsBloom": "0x00000000000000000000000000000000000000000000000000000000000000000000000000000000000000000000000000000000000000000000000000000000000000000000000000000000000000000000000000000000000000000000000000000000000000000000000000000000000000000000000000000000000000000000000000000000000000000000000000000000000000000000000000000000000000000000000000000000000000000000000000000000000000000000000000000000000000000000000000000000000000000000000000000000000000000000000000000000000000000000000000000000000000000000000000000000",
      "type": "0x2",
      "transactionHash": "0x05779582b56076fb636889de53e8782c9f305f9c47de2f252ea28809997ea658",
      "transactionIndex": "0x7f",
      "blockHash": "0x16d0ccc67860ec6b4365fb49bcd89eff182996e5a2f811f75c218a0e4012866d",
      "blockNumber": "0x839ce2",
      "gasUsed": "0xae1f",
      "effectiveGasPrice": "0xa82266ef",
      "from": "0xfec0c677955472e5ecdd3fb6f3deed33d7fb1fb4",
      "to": "0x3a9dab65fa437e31ce47fcc80eb9a0d9a170b931",
      "contractAddress": null
    },
    {
      "status": "0x1",
      "cumulativeGasUsed": "0x170a2cd",
      "logs": [
        {
          "address": "0x80321265e087d94e43619a62b8e78a9e4af8c083",
          "topics": [
            "0x743d3067919fbf32a17803b5c0a9dd39d48691e1376031b691cc173f593b0933",
            "0x702d431605daa061cc1a3cd382cfc7eb2a92873d0312ca9e46ed440cc044570b"
          ],
          "data": "0x",
          "blockHash": "0x16d0ccc67860ec6b4365fb49bcd89eff182996e5a2f811f75c218a0e4012866d",
          "blockNumber": "0x839ce2",
          "blockTimestamp": "0x685bd3c8",
          "transactionHash": "0x2db1fe05b4920f482450713d36d2d738ad8a8a733ae0b31a7aa7564b142e2671",
          "transactionIndex": "0x81",
          "logIndex": "0xbd",
          "removed": false
        }
      ],
      "logsBloom": "0x00000000000000000000000000000001000000000000000000000000000200000000000000000000000000000000000000000000000000000000000000000000001000100000000000001000000000000000000000000000000000000000000000000000000000000000000000000000000000000000000000000000000000000000000000000000000000000000400000000000000000000004000000000000000000000000000000000000000000000400000000000000000000000000000000000000000020000000000000000000000000000000000000000000000000000000000000000000000000000000000000000000000000000000000000000000",
      "type": "0x2",
      "transactionHash": "0x2db1fe05b4920f482450713d36d2d738ad8a8a733ae0b31a7aa7564b142e2671",
      "transactionIndex": "0x81",
      "blockHash": "0x16d0ccc67860ec6b4365fb49bcd89eff182996e5a2f811f75c218a0e4012866d",
      "blockNumber": "0x839ce2",
      "gasUsed": "0x18b40",
      "effectiveGasPrice": "0xa82266ef",
      "from": "0xfec0c677955472e5ecdd3fb6f3deed33d7fb1fb4",
      "to": "0x80321265e087d94e43619a62b8e78a9e4af8c083",
      "contractAddress": null
    }
  ],
  "libraries": [],
  "pending": [],
  "returns": {},
  "timestamp": 1750848458,
  "chain": 11155111,
  "commit": "612ff8c"
}