{
  "transactions": [
    {
      "hash": "0x226c4c3f5213b92db65e43be4243a1a595cd3b834059fca682a65d3f0b4deca6",
      "transactionType": "CALL",
      "contractName": null,
      "contractAddress": "0x80321265e087d94e43619a62b8e78a9e4af8c083",
      "function": "withdraw(bytes32,address)",
      "arguments": [
        "0x294549f8629f0eeb2b8e01aca491f701f5386a9662403b485c4efe7d447dfba3",
        "0x932999C473DEcAFd13722cEB4141239E2753E379"
      ],
      "transaction": {
        "from": "0xfec0c677955472e5ecdd3fb6f3deed33d7fb1fb4",
        "to": "0x80321265e087d94e43619a62b8e78a9e4af8c083",
        "gas": "0x1ab84",
        "value": "0x0",
        "input": "0x1b258d50294549f8629f0eeb2b8e01aca491f701f5386a9662403b485c4efe7d447dfba3000000000000000000000000932999c473decafd13722ceb4141239e2753e379",
        "nonce": "0x209",
        "chainId": "0xaa36a7"
      },
      "additionalContracts": [],
      "isFixedGasLimit": false
    }
  ],
  "receipts": [
    {
      "status": "0x1",
      "cumulativeGasUsed": "0xfec400",
      "logs": [
        {
          "address": "0x80321265e087d94e43619a62b8e78a9e4af8c083",
          "topics": [
            "0xb18c630f7b4f080f2ce1a87d68860e67aef56b0978e448ed92312da4eebeb160",
            "0x1d790f3463479b83e45dae372bc0bdeadf52c39540fce3ff40afd0f613c6ae69"
          ],
          "data": "0x000000000000000000000000932999c473decafd13722ceb4141239e2753e379",
          "blockHash": "0xe437819b0393b589aa3774f0f8069c7b2fc899cdca53acefffd9766f6b1e366c",
          "blockNumber": "0x839ced",
          "blockTimestamp": "0x685bd44c",
          "transactionHash": "0x226c4c3f5213b92db65e43be4243a1a595cd3b834059fca682a65d3f0b4deca6",
          "transactionIndex": "0x95",
          "logIndex": "0x108",
          "removed": false
        }
      ],
      "logsBloom": "0x00000000000020000000000000000000000000000000000000000000000040000000000000000000000000000000000000000000000000000000000000000000000000100000020000001000000000000000000000000000000000000000000000000000000000000000080000000000000000000000000000000000000000000000000000000000000000000000000000000000000000000000000000000000000000000000000000000000000000000020000000000000000000000000000000000000000020000000000000000000000000000000000000000000000000000000000000000000000000000000000000000000000000000000000004000000",
      "type": "0x2",
      "transactionHash": "0x226c4c3f5213b92db65e43be4243a1a595cd3b834059fca682a65d3f0b4deca6",
      "transactionIndex": "0x95",
      "blockHash": "0xe437819b0393b589aa3774f0f8069c7b2fc899cdca53acefffd9766f6b1e366c",
      "blockNumber": "0x839ced",
      "gasUsed": "0x13584",
      "effectiveGasPrice": "0x92133544",
      "from": "0xfec0c677955472e5ecdd3fb6f3deed33d7fb1fb4",
      "to": "0x80321265e087d94e43619a62b8e78a9e4af8c083",
      "contractAddress": null
    }
  ],
  "libraries": [],
  "pending": [],
  "returns": {},
  "timestamp": 1750848589,
  "chain": 11155111,
  "commit": "612ff8c"
}