{
  "transactions": [
    {
      "hash": "0xc8449187266e3ccae64368b2b44c17eda0dca06c6ffe485a3d3e98334122489d",
      "transactionType": "CALL",
      "contractName": null,
      "contractAddress": "0xd0d10ee4d177d402dc1d48c99633b8a055297f73",
      "function": "approve(address,uint256)",
      "arguments": [
        "0xfDE4F040b09fe47f7E5FA4E8948167907B0243Cf",
        "100000000000000000000"
      ],
      "transaction": {
        "from": "0xfec0c677955472e5ecdd3fb6f3deed33d7fb1fb4",
        "to": "0xd0d10ee4d177d402dc1d48c99633b8a055297f73",
        "gas": "0xf080",
        "value": "0x0",
        "input": "0x095ea7b3000000000000000000000000fde4f040b09fe47f7e5fa4e8948167907b0243cf0000000000000000000000000000000000000000000000056bc75e2d63100000",
        "nonce": "0x1fa",
        "chainId": "0xaa36a7"
      },
      "additionalContracts": [],
      "isFixedGasLimit": false
    },
    {
      "hash": "0x3e712721332e39fb33d1b1c89144ffbad3762c4948efbb714266180ad4d0a6b1",
      "transactionType": "CALL",
      "contractName": null,
      "contractAddress": "0xfde4f040b09fe47f7e5fa4e8948167907b0243cf",
      "function": "deposit(bytes32,uint256)",
      "arguments": [
        "0x2ed293efa90dd457a302c46949588d43099e0897bccde03115db594d0ba62445",
        "100000000000000000000"
      ],
      "transaction": {
        "from": "0xfec0c677955472e5ecdd3fb6f3deed33d7fb1fb4",
        "to": "0xfde4f040b09fe47f7e5fa4e8948167907b0243cf",
        "gas": "0x14dd4",
        "value": "0x0",
        "input": "0x1de26e162ed293efa90dd457a302c46949588d43099e0897bccde03115db594d0ba624450000000000000000000000000000000000000000000000056bc75e2d63100000",
        "nonce": "0x1fb",
        "chainId": "0xaa36a7"
      },
      "additionalContracts": [],
      "isFixedGasLimit": false
    }
  ],
  "receipts": [
    {
      "status": "0x1",
      "cumulativeGasUsed": "0x1296003",
      "logs": [],
      "logsBloom": "0x00000000000000000000000000000000000000000000000000000000000000000000000000000000000000000000000000000000000000000000000000000000000000000000000000000000000000000000000000000000000000000000000000000000000000000000000000000000000000000000000000000000000000000000000000000000000000000000000000000000000000000000000000000000000000000000000000000000000000000000000000000000000000000000000000000000000000000000000000000000000000000000000000000000000000000000000000000000000000000000000000000000000000000000000000000000",
      "type": "0x2",
      "transactionHash": "0xc8449187266e3ccae64368b2b44c17eda0dca06c6ffe485a3d3e98334122489d",
      "transactionIndex": "0x72",
      "blockHash": "0xe12dba319fa519603046f5f3a8d4fbf7b8b3371b7c81d54095db36d50e5080e4",
      "blockNumber": "0x83977e",
      "gasUsed": "0xae1f",
      "effectiveGasPrice": "0x2ed9ca",
      "from": "0xfec0c677955472e5ecdd3fb6f3deed33d7fb1fb4",
      "to": "0xd0d10ee4d177d402dc1d48c99633b8a055297f73",
      "contractAddress": null
    },
    {
      "status": "0x1",
      "cumulativeGasUsed": "0x12a51b3",
      "logs": [
        {
          "address": "0xfde4f040b09fe47f7e5fa4e8948167907b0243cf",
          "topics": [
            "0x743d3067919fbf32a17803b5c0a9dd39d48691e1376031b691cc173f593b0933",
            "0x2ed293efa90dd457a302c46949588d43099e0897bccde03115db594d0ba62445"
          ],
          "data": "0x",
          "blockHash": "0xe12dba319fa519603046f5f3a8d4fbf7b8b3371b7c81d54095db36d50e5080e4",
          "blockNumber": "0x83977e",
          "blockTimestamp": "0x685b92a0",
          "transactionHash": "0x3e712721332e39fb33d1b1c89144ffbad3762c4948efbb714266180ad4d0a6b1",
          "transactionIndex": "0x73",
          "logIndex": "0xa2",
          "removed": false
        }
      ],
      "logsBloom": "0x00000000000000000000000000000001000000000000000000000000000000000000000080000000000000000000000200000000000000000000000000000000041000000000000000008000000000000000000000000000000000000000000000000000000000000000000000000000000000000000000000000000000000000000000000000020000000000000000000000000000000000000000000000000000000000000000000000000000000000400000000000000000000000000000000000000000000000000000000000000000000000000000000000000000000000000000000000000000000000000001000000000000000000000000000000000",
      "type": "0x2",
      "transactionHash": "0x3e712721332e39fb33d1b1c89144ffbad3762c4948efbb714266180ad4d0a6b1",
      "transactionIndex": "0x73",
      "blockHash": "0xe12dba319fa519603046f5f3a8d4fbf7b8b3371b7c81d54095db36d50e5080e4",
      "blockNumber": "0x83977e",
      "gasUsed": "0xf1b0",
      "effectiveGasPrice": "0x2ed9ca",
      "from": "0xfec0c677955472e5ecdd3fb6f3deed33d7fb1fb4",
      "to": "0xfde4f040b09fe47f7e5fa4e8948167907b0243cf",
      "contractAddress": null
    }
  ],
  "libraries": [],
  "pending": [],
  "returns": {},
  "timestamp": 1750831778,
  "chain": 11155111,
  "commit": "5eeddb6"
}